{"contracts/DeFiLendingPool.sol":{"DeFiLendingPool":{"abi":[{"inputs":[{"internalType":"contract IERC20","name":"_asset","type":"address"}],"stateMutability":"nonpayable","type":"constructor"},{"inputs":[{"internalType":"address","name":"token","type":"address"}],"name":"SafeERC20FailedOperation","type":"error"},{"anonymous":false,"inputs":[{"indexed":true,"internalType":"address","name":"user","type":"address"},{"indexed":false,"internalType":"uint256","name":"amount","type":"uint256"}],"name":"Borrowed","type":"event"},{"anonymous":false,"inputs":[{"indexed":true,"internalType":"address","name":"user","type":"address"},{"indexed":false,"internalType":"uint256","name":"amount","type":"uint256"}],"name":"Deposited","type":"event"},{"anonymous":false,"inputs":[{"indexed":false,"internalType":"uint256","name":"supplyIndex","type":"uint256"},{"indexed":false,"internalType":"uint256","name":"borrowIndex","type":"uint256"},{"indexed":false,"internalType":"uint256","name":"totalSupply","type":"uint256"},{"indexed":false,"internalType":"uint256","name":"totalBorrow","type":"uint256"},{"indexed":false,"internalType":"uint256","name":"borrowRatePerYear","type":"uint256"},{"indexed":false,"internalType":"uint256","name":"supplyRatePerYear","type":"uint256"}],"name":"InterestAccrued","type":"event"},{"anonymous":false,"inputs":[{"indexed":true,"internalType":"address","name":"user","type":"address"},{"indexed":false,"internalType":"uint256","name":"amount","type":"uint256"}],"name":"Repaid","type":"event"},{"anonymous":false,"inputs":[{"indexed":true,"internalType":"address","name":"user","type":"address"},{"indexed":false,"internalType":"uint256","name":"amount","type":"uint256"}],"name":"Withdrawn","type":"event"},{"inputs":[],"name":"WAD","outputs":[{"internalType":"uint256","name":"","type":"uint256"}],"stateMutability":"view","type":"function"},{"inputs":[],"name":"YEAR","outputs":[{"internalType":"uint256","name":"","type":"uint256"}],"stateMutability":"view","type":"function"},{"inputs":[],"name":"accrueInterest","outputs":[],"stateMutability":"nonpayable","type":"function"},{"inputs":[],"name":"asset","outputs":[{"internalType":"contract IERC20","name":"","type":"address"}],"stateMutability":"view","type":"function"},{"inputs":[],"name":"baseRatePerYear","outputs":[{"internalType":"uint256","name":"","type":"uint256"}],"stateMutability":"view","type":"function"},{"inputs":[{"internalType":"uint256","name":"amount","type":"uint256"}],"name":"borrow","outputs":[],"stateMutability":"nonpayable","type":"function"},{"inputs":[],"name":"borrowIndex","outputs":[{"internalType":"uint256","name":"","type":"uint256"}],"stateMutability":"view","type":"function"},{"inputs":[],"name":"collateralFactor","outputs":[{"internalType":"uint256","name":"","type":"uint256"}],"stateMutability":"view","type":"function"},{"inputs":[],"name":"currentRates","outputs":[{"internalType":"uint256","name":"borrowRate","type":"uint256"},{"internalType":"uint256","name":"supplyRate","type":"uint256"},{"internalType":"uint256","name":"utilization","type":"uint256"}],"stateMutability":"view","type":"function"},{"inputs":[{"internalType":"uint256","name":"amount","type":"uint256"}],"name":"deposit","outputs":[],"stateMutability":"nonpayable","type":"function"},{"inputs":[],"name":"lastAccrualTimestamp","outputs":[{"internalType":"uint256","name":"","type":"uint256"}],"stateMutability":"view","type":"function"},{"inputs":[{"internalType":"address","name":"","type":"address"}],"name":"positions","outputs":[{"internalType":"uint256","name":"supplyPrincipal","type":"uint256"},{"internalType":"uint256","name":"borrowPrincipal","type":"uint256"},{"internalType":"uint256","name":"supplyIndexSnapshot","type":"uint256"},{"internalType":"uint256","name":"borrowIndexSnapshot","type":"uint256"}],"stateMutability":"view","type":"function"},{"inputs":[],"name":"previewState","outputs":[{"internalType":"uint256","name":"projectedSupply","type":"uint256"},{"internalType":"uint256","name":"projectedBorrow","type":"uint256"},{"internalType":"uint256","name":"projectedSupplyIndex","type":"uint256"},{"internalType":"uint256","name":"projectedBorrowIndex","type":"uint256"},{"internalType":"uint256","name":"borrowRate","type":"uint256"},{"internalType":"uint256","name":"supplyRate","type":"uint256"}],"stateMutability":"view","type":"function"},{"inputs":[{"internalType":"uint256","name":"amount","type":"uint256"}],"name":"repay","outputs":[{"internalType":"uint256","name":"repaid","type":"uint256"}],"stateMutability":"nonpayable","type":"function"},{"inputs":[],"name":"reserveFactor","outputs":[{"internalType":"uint256","name":"","type":"uint256"}],"stateMutability":"view","type":"function"},{"inputs":[],"name":"slopeRatePerYear","outputs":[{"internalType":"uint256","name":"","type":"uint256"}],"stateMutability":"view","type":"function"},{"inputs":[],"name":"supplyIndex","outputs":[{"internalType":"uint256","name":"","type":"uint256"}],"stateMutability":"view","type":"function"},{"inputs":[],"name":"totalBorrowPrincipal","outputs":[{"internalType":"uint256","name":"","type":"uint256"}],"stateMutability":"view","type":"function"},{"inputs":[],"name":"totalSupplyPrincipal","outputs":[{"internalType":"uint256","name":"","type":"uint256"}],"stateMutability":"view","type":"function"},{"inputs":[{"internalType":"address","name":"user","type":"address"}],"name":"userAccount","outputs":[{"internalType":"uint256","name":"supplied","type":"uint256"},{"internalType":"uint256","name":"borrowed","type":"uint256"},{"internalType":"uint256","name":"availableToBorrow","type":"uint256"}],"stateMutability":"view","type":"function"},{"inputs":[{"internalType":"uint256","name":"amount","type":"uint256"}],"name":"withdraw","outputs":[],"stateMutability":"nonpayable","type":"function"}],"evm":{"bytecode":{"linkReferences":{},"object":"60a060405266470de4df82000060005567027f7d0bdb92000060015567016345785d8a0000600255670a688906bd8b0000600355670de0b6b3a7640000600655670de0b6b3a764000060075534801561005757600080fd5b5060405161119a38038061119a8339810160408190526100769161008b565b6001600160a01b0316608052426008556100bb565b60006020828403121561009d57600080fd5b81516001600160a01b03811681146100b457600080fd5b9392505050565b60805161109a610100600039600081816101ba0152818161051e0152818161060a0152818161070e015281816108bd01528181610a200152610b0f015261109a6000f3fe608060405234801561001057600080fd5b50600436106101375760003560e01c80638b972045116100b8578063b6b55f251161007c578063b6b55f25146102bb578063c0789dcb146102ce578063c5ebeaec146102d7578063de3f9485146102ea578063df011c41146102f3578063ea5eda32146102fc57600080fd5b80638b9720451461027557806398f1bc121461027e578063a6afed9514610287578063aa5af0fd1461028f578063b0b423d71461029857600080fd5b80633e92d260116100ff5780633e92d260146101f45780634322b714146101fd57806355f57510146102065780636a1460241461025b578063839145401461026a57600080fd5b80631bcf0f981461013c5780632b9b1730146101765780632e1a7d4d1461018d578063371fd8e6146101a257806338d52e0f146101b5575b600080fd5b61014461030f565b604080519687526020870195909552938501929092526060840152608083015260a082015260c0015b60405180910390f35b61017f60055481565b60405190815260200161016d565b6101a061019b366004610f72565b61040b565b005b61017f6101b0366004610f72565b61066c565b6101dc7f000000000000000000000000000000000000000000000000000000000000000081565b6040516001600160a01b03909116815260200161016d565b61017f60015481565b61017f60025481565b61023b610214366004610f8b565b60096020526000908152604090208054600182015460028301546003909301549192909184565b60408051948552602085019390935291830152606082015260800161016d565b61017f670de0b6b3a764000081565b61017f6301e1338081565b61017f60045481565b61017f60065481565b6101a06107a3565b61017f60075481565b6102a0610857565b6040805193845260208401929092529082015260600161016d565b6101a06102c9366004610f72565b61087f565b61017f60085481565b6101a06102e5366004610f72565b61095a565b61017f60005481565b61017f60035481565b6102a061030a366004610f8b565b610b68565b6000806000806000806000600854426103289190610fca565b9050600061033a600454600554610c72565b905061034581610cc3565b8094508195505050600454975060055496506006549550600754945081600003610370575050610403565b60006301e133806103818487610fdd565b61038b9190610ff4565b61039d90670de0b6b3a7640000611016565b905060006301e133806103b08587610fdd565b6103ba9190610ff4565b6103cc90670de0b6b3a7640000611016565b90506103d88983610d0f565b98506103e48a82610d0f565b99506103f08783610d0f565b96506103fc8882610d0f565b9750505050505b909192939495565b600081116104345760405162461bcd60e51b815260040161042b90611029565b60405180910390fd5b61043c6107a3565b61044533610d35565b336000908152600960205260409020805482111561049b5760405162461bcd60e51b8152602060048201526013602482015272696e73756666696369656e7420737570706c7960681b604482015260640161042b565b80546000906104ab908490610fca565b90506104bb818360010154610de4565b6105075760405162461bcd60e51b815260206004820181905260248201527f776f756c64206265636f6d6520756e646572636f6c6c61746572616c697a6564604482015260640161042b565b6040516370a0823160e01b815230600482015283907f00000000000000000000000000000000000000000000000000000000000000006001600160a01b0316906370a0823190602401602060405180830381865afa15801561056d573d6000803e3d6000fd5b505050506040513d601f19601f82011682018060405250810190610591919061104b565b10156105df5760405162461bcd60e51b815260206004820152601b60248201527f696e73756666696369656e7420706f6f6c206c69717569646974790000000000604482015260640161042b565b808255600480548491906000906105f7908490610fca565b9091555061063190506001600160a01b037f0000000000000000000000000000000000000000000000000000000000000000163385610e0f565b60405183815233907f7084f5476618d8e60b11ef0d7d3f06914655adb8793e28ff7f018d4c76d505d5906020015b60405180910390a2505050565b600080821161068d5760405162461bcd60e51b815260040161042b90611029565b6106956107a3565b61069e33610d35565b33600090815260096020526040902060018101546106e85760405162461bcd60e51b81526020600482015260076024820152661b9bc81919589d60ca1b604482015260640161042b565b806001015483116106f957826106ff565b80600101545b91506107366001600160a01b037f000000000000000000000000000000000000000000000000000000000000000016333085610e49565b8181600101600082825461074a9190610fca565b9250508190555081600560008282546107639190610fca565b909155505060405182815233907f0516911bcc3a0a7412a44601057c0a0a1ec628bde049a84284bc4288665344889060200160405180910390a250919050565b6000600854426107b39190610fca565b9050806000036107c05750565b6000806000806000806107d161030f565b6004869055600585905560068490556007839055426008556040805185815260208101859052908101879052606081018690526080810183905260a08101829052959b509399509197509550935091507ff59d1911fff863f94e712b8a90fa6badeaf1daf0153218d332689f7019f7e6b19060c00160405180910390a150505050505050565b600080600061086a600454600554610c72565b905061087581610cc3565b9094909350909150565b6000811161089f5760405162461bcd60e51b815260040161042b90611029565b6108a76107a3565b6108b033610d35565b6108e56001600160a01b037f000000000000000000000000000000000000000000000000000000000000000016333084610e49565b3360009081526009602052604081208054839290610904908490611016565b92505081905550806004600082825461091d9190611016565b909155505060405181815233907f2da466a7b24304f47e87fa2e1e5a81b9831ce54fec19055ce277ca2f39ba42c49060200160405180910390a250565b6000811161097a5760405162461bcd60e51b815260040161042b90611029565b6109826107a3565b61098b33610d35565b33600090815260096020526040812060018101549091906109ad908490611016565b90506109bd826000015482610de4565b610a095760405162461bcd60e51b815260206004820152601760248201527f696e73756666696369656e7420636f6c6c61746572616c000000000000000000604482015260640161042b565b6040516370a0823160e01b815230600482015283907f00000000000000000000000000000000000000000000000000000000000000006001600160a01b0316906370a0823190602401602060405180830381865afa158015610a6f573d6000803e3d6000fd5b505050506040513d601f19601f82011682018060405250810190610a93919061104b565b1015610ae15760405162461bcd60e51b815260206004820152601b60248201527f696e73756666696369656e7420706f6f6c206c69717569646974790000000000604482015260640161042b565b8082600101819055508260056000828254610afc9190611016565b90915550610b3690506001600160a01b037f0000000000000000000000000000000000000000000000000000000000000000163385610e0f565b60405183815233907fac59582e5396aca512fa873a2047e7f4c80f8f55d4a06cb34a78a0187f62719f9060200161065f565b6001600160a01b0381166000908152600960209081526040808320815160808101835281548152600182015493810193909352600281015491830191909152600301546060820152819081908180610bbe61030f565b50509350935050508260000151955082602001519450600086118015610be8575060008360400151115b15610c09576040830151610bfc8388610fdd565b610c069190610ff4565b95505b600085118015610c1d575060008360600151115b15610c3e576060830151610c318287610fdd565b610c3b9190610ff4565b94505b6000610c4c87600354610d0f565b9050858111610c5c576000610c66565b610c668682610fca565b96989597505050505050565b6000821580610c7f575081155b15610c8c57506000610cbd565b6000610c988385610e85565b9050670de0b6b3a76400008111610caf5780610cb9565b670de0b6b3a76400005b9150505b92915050565b600080610cd260015484610d0f565b600054610cdf9190611016565b9150610d08610cee8385610d0f565b600254610d0390670de0b6b3a7640000610fca565b610d0f565b9050915091565b6000670de0b6b3a7640000610d248385610fdd565b610d2e9190610ff4565b9392505050565b6001600160a01b03811660009081526009602052604081206002810154909103610d625760065460028201555b8060030154600003610d775760075460038201555b805415610d9f5760028101546006548254610d929190610fdd565b610d9c9190610ff4565b81555b600181015415610dd05780600301546007548260010154610dc09190610fdd565b610dca9190610ff4565b60018201555b600654600282015560075460039091015550565b600081600003610df657506001610cbd565b6000610e0484600354610d0f565b909211159392505050565b610e1c8383836001610e9a565b610e4457604051635274afe760e01b81526001600160a01b038416600482015260240161042b565b505050565b610e57848484846001610f00565b610e7f57604051635274afe760e01b81526001600160a01b038516600482015260240161042b565b50505050565b600081610d24670de0b6b3a764000085610fdd565b60405163a9059cbb60e01b60008181526001600160a01b038616600452602485905291602083604481808b5af192506001600051148316610ef4578383151615610ee7573d6000823e3d81fd5b6000873b113d1516831692505b60405250949350505050565b6040516323b872dd60e01b60008181526001600160a01b038781166004528616602452604485905291602083606481808c5af192506001600051148316610f60578383151615610f53573d6000823e3d81fd5b6000883b113d1516831692505b60405250600060605295945050505050565b600060208284031215610f8457600080fd5b5035919050565b600060208284031215610f9d57600080fd5b81356001600160a01b0381168114610d2e57600080fd5b634e487b7160e01b600052601160045260246000fd5b81810381811115610cbd57610cbd610fb4565b8082028115828204841417610cbd57610cbd610fb4565b60008261101157634e487b7160e01b600052601260045260246000fd5b500490565b80820180821115610cbd57610cbd610fb4565b6020808252600890820152670616d6f756e743d360c41b604082015260600190565b60006020828403121561105d57600080fd5b505191905056fea2646970667358221220fabf6194e0778580d6cb8b4f7a65483a22fd8ec94fc3910ea3bb4d7697897a5264736f6c63430008180033","opcodes":"PUSH1 0xA0 PUSH1 0x40 MSTORE PUSH7 0x470DE4DF820000 PUSH1 0x0 SSTORE PUSH8 0x27F7D0BDB920000 PUSH1 0x1 SSTORE PUSH8 0x16345785D8A0000 PUSH1 0x2 SSTORE PUSH8 0xA688906BD8B0000 PUSH1 0x3 SSTORE PUSH8 0xDE0B6B3A7640000 PUSH1 0x6 SSTORE PUSH8 0xDE0B6B3A7640000 PUSH1 0x7 SSTORE CALLVALUE DUP1 ISZERO PUSH2 0x57 JUMPI PUSH1 0x0 DUP1 REVERT JUMPDEST POP PUSH1 0x40 MLOAD PUSH2 0x119A CODESIZE SUB DUP1 PUSH2 0x119A DUP4 CODECOPY DUP2 ADD PUSH1 0x40 DUP2 SWAP1 MSTORE PUSH2 0x76 SWAP2 PUSH2 0x8B JUMP JUMPDEST PUSH1 0x1 PUSH1 0x1 PUSH1 0xA0 SHL SUB AND PUSH1 0x80 MSTORE TIMESTAMP PUSH1 0x8 SSTORE PUSH2 0xBB JUMP JUMPDEST PUSH1 0x0 PUSH1 0x20 DUP3 DUP5 SUB SLT ISZERO PUSH2 0x9D JUMPI PUSH1 0x0 DUP1 REVERT JUMPDEST DUP2 MLOAD PUSH1 0x1 PUSH1 0x1 PUSH1 0xA0 SHL SUB DUP2 AND DUP2 EQ PUSH2 0xB4 JUMPI PUSH1 0x0 DUP1 REVERT JUMPDEST SWAP4 SWAP3 POP POP POP JUMP JUMPDEST PUSH1 0x80 MLOAD PUSH2 0x109A PUSH2 0x100 PUSH1 0x0 CODECOPY PUSH1 0x0 DUP2 DUP2 PUSH2 0x1BA ADD MSTORE DUP2 DUP2 PUSH2 0x51E ADD MSTORE DUP2 DUP2 PUSH2 0x60A ADD MSTORE DUP2 DUP2 PUSH2 0x70E ADD MSTORE DUP2 DUP2 PUSH2 0x8BD ADD MSTORE DUP2 DUP2 PUSH2 0xA20 ADD MSTORE PUSH2 0xB0F ADD MSTORE PUSH2 0x109A PUSH1 0x0 RETURN INVALID PUSH1 0x80 PUSH1 0x40 MSTORE CALLVALUE DUP1 ISZERO PUSH2 0x10 JUMPI PUSH1 0x0 DUP1 REVERT JUMPDEST POP PUSH1 0x4 CALLDATASIZE LT PUSH2 0x137 JUMPI PUSH1 0x0 CALLDATALOAD PUSH1 0xE0 SHR DUP1 PUSH4 0x8B972045 GT PUSH2 0xB8 JUMPI DUP1 PUSH4 0xB6B55F25 GT PUSH2 0x7C JUMPI DUP1 PUSH4 0xB6B55F25 EQ PUSH2 0x2BB JUMPI DUP1 PUSH4 0xC0789DCB EQ PUSH2 0x2CE JUMPI DUP1 PUSH4 0xC5EBEAEC EQ PUSH2 0x2D7 JUMPI DUP1 PUSH4 0xDE3F9485 EQ PUSH2 0x2EA JUMPI DUP1 PUSH4 0xDF011C41 EQ PUSH2 0x2F3 JUMPI DUP1 PUSH4 0xEA5EDA32 EQ PUSH2 0x2FC JUMPI PUSH1 0x0 DUP1 REVERT JUMPDEST DUP1 PUSH4 0x8B972045 EQ PUSH2 0x275 JUMPI DUP1 PUSH4 0x98F1BC12 EQ PUSH2 0x27E JUMPI DUP1 PUSH4 0xA6AFED95 EQ PUSH2 0x287 JUMPI DUP1 PUSH4 0xAA5AF0FD EQ PUSH2 0x28F JUMPI DUP1 PUSH4 0xB0B423D7 EQ PUSH2 0x298 JUMPI PUSH1 0x0 DUP1 REVERT JUMPDEST DUP1 PUSH4 0x3E92D260 GT PUSH2 0xFF JUMPI DUP1 PUSH4 0x3E92D260 EQ PUSH2 0x1F4 JUMPI DUP1 PUSH4 0x4322B714 EQ PUSH2 0x1FD JUMPI DUP1 PUSH4 0x55F57510 EQ PUSH2 0x206 JUMPI DUP1 PUSH4 0x6A146024 EQ PUSH2 0x25B JUMPI DUP1 PUSH4 0x83914540 EQ PUSH2 0x26A JUMPI PUSH1 0x0 DUP1 REVERT JUMPDEST DUP1 PUSH4 0x1BCF0F98 EQ PUSH2 0x13C JUMPI DUP1 PUSH4 0x2B9B1730 EQ PUSH2 0x176 JUMPI DUP1 PUSH4 0x2E1A7D4D EQ PUSH2 0x18D JUMPI DUP1 PUSH4 0x371FD8E6 EQ PUSH2 0x1A2 JUMPI DUP1 PUSH4 0x38D52E0F EQ PUSH2 0x1B5 JUMPI JUMPDEST PUSH1 0x0 DUP1 REVERT JUMPDEST PUSH2 0x144 PUSH2 0x30F JUMP JUMPDEST PUSH1 0x40 DUP1 MLOAD SWAP7 DUP8 MSTORE PUSH1 0x20 DUP8 ADD SWAP6 SWAP1 SWAP6 MSTORE SWAP4 DUP6 ADD SWAP3 SWAP1 SWAP3 MSTORE PUSH1 0x60 DUP5 ADD MSTORE PUSH1 0x80 DUP4 ADD MSTORE PUSH1 0xA0 DUP3 ADD MSTORE PUSH1 0xC0 ADD JUMPDEST PUSH1 0x40 MLOAD DUP1 SWAP2 SUB SWAP1 RETURN JUMPDEST PUSH2 0x17F PUSH1 0x5 SLOAD DUP2 JUMP JUMPDEST PUSH1 0x40 MLOAD SWAP1 DUP2 MSTORE PUSH1 0x20 ADD PUSH2 0x16D JUMP JUMPDEST PUSH2 0x1A0 PUSH2 0x19B CALLDATASIZE PUSH1 0x4 PUSH2 0xF72 JUMP JUMPDEST PUSH2 0x40B JUMP JUMPDEST STOP JUMPDEST PUSH2 0x17F PUSH2 0x1B0 CALLDATASIZE PUSH1 0x4 PUSH2 0xF72 JUMP JUMPDEST PUSH2 0x66C JUMP JUMPDEST PUSH2 0x1DC PUSH32 0x0 DUP2 JUMP JUMPDEST PUSH1 0x40 MLOAD PUSH1 0x1 PUSH1 0x1 PUSH1 0xA0 SHL SUB SWAP1 SWAP2 AND DUP2 MSTORE PUSH1 0x20 ADD PUSH2 0x16D JUMP JUMPDEST PUSH2 0x17F PUSH1 0x1 SLOAD DUP2 JUMP JUMPDEST PUSH2 0x17F PUSH1 0x2 SLOAD DUP2 JUMP JUMPDEST PUSH2 0x23B PUSH2 0x214 CALLDATASIZE PUSH1 0x4 PUSH2 0xF8B JUMP JUMPDEST PUSH1 0x9 PUSH1 0x20 MSTORE PUSH1 0x0 SWAP1 DUP2 MSTORE PUSH1 0x40 SWAP1 KECCAK256 DUP1 SLOAD PUSH1 0x1 DUP3 ADD SLOAD PUSH1 0x2 DUP4 ADD SLOAD PUSH1 0x3 SWAP1 SWAP4 ADD SLOAD SWAP2 SWAP3 SWAP1 SWAP2 DUP5 JUMP JUMPDEST PUSH1 0x40 DUP1 MLOAD SWAP5 DUP6 MSTORE PUSH1 0x20 DUP6 ADD SWAP4 SWAP1 SWAP4 MSTORE SWAP2 DUP4 ADD MSTORE PUSH1 0x60 DUP3 ADD MSTORE PUSH1 0x80 ADD PUSH2 0x16D JUMP JUMPDEST PUSH2 0x17F PUSH8 0xDE0B6B3A7640000 DUP2 JUMP JUMPDEST PUSH2 0x17F PUSH4 0x1E13380 DUP2 JUMP JUMPDEST PUSH2 0x17F PUSH1 0x4 SLOAD DUP2 JUMP JUMPDEST PUSH2 0x17F PUSH1 0x6 SLOAD DUP2 JUMP JUMPDEST PUSH2 0x1A0 PUSH2 0x7A3 JUMP JUMPDEST PUSH2 0x17F PUSH1 0x7 SLOAD DUP2 JUMP JUMPDEST PUSH2 0x2A0 PUSH2 0x857 JUMP JUMPDEST PUSH1 0x40 DUP1 MLOAD SWAP4 DUP5 MSTORE PUSH1 0x20 DUP5 ADD SWAP3 SWAP1 SWAP3 MSTORE SWAP1 DUP3 ADD MSTORE PUSH1 0x60 ADD PUSH2 0x16D JUMP JUMPDEST PUSH2 0x1A0 PUSH2 0x2C9 CALLDATASIZE PUSH1 0x4 PUSH2 0xF72 JUMP JUMPDEST PUSH2 0x87F JUMP JUMPDEST PUSH2 0x17F PUSH1 0x8 SLOAD DUP2 JUMP JUMPDEST PUSH2 0x1A0 PUSH2 0x2E5 CALLDATASIZE PUSH1 0x4 PUSH2 0xF72 JUMP JUMPDEST PUSH2 0x95A JUMP JUMPDEST PUSH2 0x17F PUSH1 0x0 SLOAD DUP2 JUMP JUMPDEST PUSH2 0x17F PUSH1 0x3 SLOAD DUP2 JUMP JUMPDEST PUSH2 0x2A0 PUSH2 0x30A CALLDATASIZE PUSH1 0x4 PUSH2 0xF8B JUMP JUMPDEST PUSH2 0xB68 JUMP JUMPDEST PUSH1 0x0 DUP1 PUSH1 0x0 DUP1 PUSH1 0x0 DUP1 PUSH1 0x0 PUSH1 0x8 SLOAD TIMESTAMP PUSH2 0x328 SWAP2 SWAP1 PUSH2 0xFCA JUMP JUMPDEST SWAP1 POP PUSH1 0x0 PUSH2 0x33A PUSH1 0x4 SLOAD PUSH1 0x5 SLOAD PUSH2 0xC72 JUMP JUMPDEST SWAP1 POP PUSH2 0x345 DUP2 PUSH2 0xCC3 JUMP JUMPDEST DUP1 SWAP5 POP DUP2 SWAP6 POP POP POP PUSH1 0x4 SLOAD SWAP8 POP PUSH1 0x5 SLOAD SWAP7 POP PUSH1 0x6 SLOAD SWAP6 POP PUSH1 0x7 SLOAD SWAP5 POP DUP2 PUSH1 0x0 SUB PUSH2 0x370 JUMPI POP POP PUSH2 0x403 JUMP JUMPDEST PUSH1 0x0 PUSH4 0x1E13380 PUSH2 0x381 DUP5 DUP8 PUSH2 0xFDD JUMP JUMPDEST PUSH2 0x38B SWAP2 SWAP1 PUSH2 0xFF4 JUMP JUMPDEST PUSH2 0x39D SWAP1 PUSH8 0xDE0B6B3A7640000 PUSH2 0x1016 JUMP JUMPDEST SWAP1 POP PUSH1 0x0 PUSH4 0x1E13380 PUSH2 0x3B0 DUP6 DUP8 PUSH2 0xFDD JUMP JUMPDEST PUSH2 0x3BA SWAP2 SWAP1 PUSH2 0xFF4 JUMP JUMPDEST PUSH2 0x3CC SWAP1 PUSH8 0xDE0B6B3A7640000 PUSH2 0x1016 JUMP JUMPDEST SWAP1 POP PUSH2 0x3D8 DUP10 DUP4 PUSH2 0xD0F JUMP JUMPDEST SWAP9 POP PUSH2 0x3E4 DUP11 DUP3 PUSH2 0xD0F JUMP JUMPDEST SWAP10 POP PUSH2 0x3F0 DUP8 DUP4 PUSH2 0xD0F JUMP JUMPDEST SWAP7 POP PUSH2 0x3FC DUP9 DUP3 PUSH2 0xD0F JUMP JUMPDEST SWAP8 POP POP POP POP POP JUMPDEST SWAP1 SWAP2 SWAP3 SWAP4 SWAP5 SWAP6 JUMP JUMPDEST PUSH1 0x0 DUP2 GT PUSH2 0x434 JUMPI PUSH1 0x40 MLOAD PUSH3 0x461BCD PUSH1 0xE5 SHL DUP2 MSTORE PUSH1 0x4 ADD PUSH2 0x42B SWAP1 PUSH2 0x1029 JUMP JUMPDEST PUSH1 0x40 MLOAD DUP1 SWAP2 SUB SWAP1 REVERT JUMPDEST PUSH2 0x43C PUSH2 0x7A3 JUMP JUMPDEST PUSH2 0x445 CALLER PUSH2 0xD35 JUMP JUMPDEST CALLER PUSH1 0x0 SWAP1 DUP2 MSTORE PUSH1 0x9 PUSH1 0x20 MSTORE PUSH1 0x40 SWAP1 KECCAK256 DUP1 SLOAD DUP3 GT ISZERO PUSH2 0x49B JUMPI PUSH1 0x40 MLOAD PUSH3 0x461BCD PUSH1 0xE5 SHL DUP2 MSTORE PUSH1 0x20 PUSH1 0x4 DUP3 ADD MSTORE PUSH1 0x13 PUSH1 0x24 DUP3 ADD MSTORE PUSH19 0x696E73756666696369656E7420737570706C79 PUSH1 0x68 SHL PUSH1 0x44 DUP3 ADD MSTORE PUSH1 0x64 ADD PUSH2 0x42B JUMP JUMPDEST DUP1 SLOAD PUSH1 0x0 SWAP1 PUSH2 0x4AB SWAP1 DUP5 SWAP1 PUSH2 0xFCA JUMP JUMPDEST SWAP1 POP PUSH2 0x4BB DUP2 DUP4 PUSH1 0x1 ADD SLOAD PUSH2 0xDE4 JUMP JUMPDEST PUSH2 0x507 JUMPI PUSH1 0x40 MLOAD PUSH3 0x461BCD PUSH1 0xE5 SHL DUP2 MSTORE PUSH1 0x20 PUSH1 0x4 DUP3 ADD DUP2 SWAP1 MSTORE PUSH1 0x24 DUP3 ADD MSTORE PUSH32 0x776F756C64206265636F6D6520756E646572636F6C6C61746572616C697A6564 PUSH1 0x44 DUP3 ADD MSTORE PUSH1 0x64 ADD PUSH2 0x42B JUMP JUMPDEST PUSH1 0x40 MLOAD PUSH4 0x70A08231 PUSH1 0xE0 SHL DUP2 MSTORE ADDRESS PUSH1 0x4 DUP3 ADD MSTORE DUP4 SWAP1 PUSH32 0x0 PUSH1 0x1 PUSH1 0x1 PUSH1 0xA0 SHL SUB AND SWAP1 PUSH4 0x70A08231 SWAP1 PUSH1 0x24 ADD PUSH1 0x20 PUSH1 0x40 MLOAD DUP1 DUP4 SUB DUP2 DUP7 GAS STATICCALL ISZERO DUP1 ISZERO PUSH2 0x56D JUMPI RETURNDATASIZE PUSH1 0x0 DUP1 RETURNDATACOPY RETURNDATASIZE PUSH1 0x0 REVERT JUMPDEST POP POP POP POP PUSH1 0x40 MLOAD RETURNDATASIZE PUSH1 0x1F NOT PUSH1 0x1F DUP3 ADD AND DUP3 ADD DUP1 PUSH1 0x40 MSTORE POP DUP2 ADD SWAP1 PUSH2 0x591 SWAP2 SWAP1 PUSH2 0x104B JUMP JUMPDEST LT ISZERO PUSH2 0x5DF JUMPI PUSH1 0x40 MLOAD PUSH3 0x461BCD PUSH1 0xE5 SHL DUP2 MSTORE PUSH1 0x20 PUSH1 0x4 DUP3 ADD MSTORE PUSH1 0x1B PUSH1 0x24 DUP3 ADD MSTORE PUSH32 0x696E73756666696369656E7420706F6F6C206C69717569646974790000000000 PUSH1 0x44 DUP3 ADD MSTORE PUSH1 0x64 ADD PUSH2 0x42B JUMP JUMPDEST DUP1 DUP3 SSTORE PUSH1 0x4 DUP1 SLOAD DUP5 SWAP2 SWAP1 PUSH1 0x0 SWAP1 PUSH2 0x5F7 SWAP1 DUP5 SWAP1 PUSH2 0xFCA JUMP JUMPDEST SWAP1 SWAP2 SSTORE POP PUSH2 0x631 SWAP1 POP PUSH1 0x1 PUSH1 0x1 PUSH1 0xA0 SHL SUB PUSH32 0x0 AND CALLER DUP6 PUSH2 0xE0F JUMP JUMPDEST PUSH1 0x40 MLOAD DUP4 DUP2 MSTORE CALLER SWAP1 PUSH32 0x7084F5476618D8E60B11EF0D7D3F06914655ADB8793E28FF7F018D4C76D505D5 SWAP1 PUSH1 0x20 ADD JUMPDEST PUSH1 0x40 MLOAD DUP1 SWAP2 SUB SWAP1 LOG2 POP POP POP JUMP JUMPDEST PUSH1 0x0 DUP1 DUP3 GT PUSH2 0x68D JUMPI PUSH1 0x40 MLOAD PUSH3 0x461BCD PUSH1 0xE5 SHL DUP2 MSTORE PUSH1 0x4 ADD PUSH2 0x42B SWAP1 PUSH2 0x1029 JUMP JUMPDEST PUSH2 0x695 PUSH2 0x7A3 JUMP JUMPDEST PUSH2 0x69E CALLER PUSH2 0xD35 JUMP JUMPDEST CALLER PUSH1 0x0 SWAP1 DUP2 MSTORE PUSH1 0x9 PUSH1 0x20 MSTORE PUSH1 0x40 SWAP1 KECCAK256 PUSH1 0x1 DUP2 ADD SLOAD PUSH2 0x6E8 JUMPI PUSH1 0x40 MLOAD PUSH3 0x461BCD PUSH1 0xE5 SHL DUP2 MSTORE PUSH1 0x20 PUSH1 0x4 DUP3 ADD MSTORE PUSH1 0x7 PUSH1 0x24 DUP3 ADD MSTORE PUSH7 0x1B9BC81919589D PUSH1 0xCA SHL PUSH1 0x44 DUP3 ADD MSTORE PUSH1 0x64 ADD PUSH2 0x42B JUMP JUMPDEST DUP1 PUSH1 0x1 ADD SLOAD DUP4 GT PUSH2 0x6F9 JUMPI DUP3 PUSH2 0x6FF JUMP JUMPDEST DUP1 PUSH1 0x1 ADD SLOAD JUMPDEST SWAP2 POP PUSH2 0x736 PUSH1 0x1 PUSH1 0x1 PUSH1 0xA0 SHL SUB PUSH32 0x0 AND CALLER ADDRESS DUP6 PUSH2 0xE49 JUMP JUMPDEST DUP2 DUP2 PUSH1 0x1 ADD PUSH1 0x0 DUP3 DUP3 SLOAD PUSH2 0x74A SWAP2 SWAP1 PUSH2 0xFCA JUMP JUMPDEST SWAP3 POP POP DUP2 SWAP1 SSTORE POP DUP2 PUSH1 0x5 PUSH1 0x0 DUP3 DUP3 SLOAD PUSH2 0x763 SWAP2 SWAP1 PUSH2 0xFCA JUMP JUMPDEST SWAP1 SWAP2 SSTORE POP POP PUSH1 0x40 MLOAD DUP3 DUP2 MSTORE CALLER SWAP1 PUSH32 0x516911BCC3A0A7412A44601057C0A0A1EC628BDE049A84284BC428866534488 SWAP1 PUSH1 0x20 ADD PUSH1 0x40 MLOAD DUP1 SWAP2 SUB SWAP1 LOG2 POP SWAP2 SWAP1 POP JUMP JUMPDEST PUSH1 0x0 PUSH1 0x8 SLOAD TIMESTAMP PUSH2 0x7B3 SWAP2 SWAP1 PUSH2 0xFCA JUMP JUMPDEST SWAP1 POP DUP1 PUSH1 0x0 SUB PUSH2 0x7C0 JUMPI POP JUMP JUMPDEST PUSH1 0x0 DUP1 PUSH1 0x0 DUP1 PUSH1 0x0 DUP1 PUSH2 0x7D1 PUSH2 0x30F JUMP JUMPDEST PUSH1 0x4 DUP7 SWAP1 SSTORE PUSH1 0x5 DUP6 SWAP1 SSTORE PUSH1 0x6 DUP5 SWAP1 SSTORE PUSH1 0x7 DUP4 SWAP1 SSTORE TIMESTAMP PUSH1 0x8 SSTORE PUSH1 0x40 DUP1 MLOAD DUP6 DUP2 MSTORE PUSH1 0x20 DUP2 ADD DUP6 SWAP1 MSTORE SWAP1 DUP2 ADD DUP8 SWAP1 MSTORE PUSH1 0x60 DUP2 ADD DUP7 SWAP1 MSTORE PUSH1 0x80 DUP2 ADD DUP4 SWAP1 MSTORE PUSH1 0xA0 DUP2 ADD DUP3 SWAP1 MSTORE SWAP6 SWAP12 POP SWAP4 SWAP10 POP SWAP2 SWAP8 POP SWAP6 POP SWAP4 POP SWAP2 POP PUSH32 0xF59D1911FFF863F94E712B8A90FA6BADEAF1DAF0153218D332689F7019F7E6B1 SWAP1 PUSH1 0xC0 ADD PUSH1 0x40 MLOAD DUP1 SWAP2 SUB SWAP1 LOG1 POP POP POP POP POP POP POP JUMP JUMPDEST PUSH1 0x0 DUP1 PUSH1 0x0 PUSH2 0x86A PUSH1 0x4 SLOAD PUSH1 0x5 SLOAD PUSH2 0xC72 JUMP JUMPDEST SWAP1 POP PUSH2 0x875 DUP2 PUSH2 0xCC3 JUMP JUMPDEST SWAP1 SWAP5 SWAP1 SWAP4 POP SWAP1 SWAP2 POP JUMP JUMPDEST PUSH1 0x0 DUP2 GT PUSH2 0x89F JUMPI PUSH1 0x40 MLOAD PUSH3 0x461BCD PUSH1 0xE5 SHL DUP2 MSTORE PUSH1 0x4 ADD PUSH2 0x42B SWAP1 PUSH2 0x1029 JUMP JUMPDEST PUSH2 0x8A7 PUSH2 0x7A3 JUMP JUMPDEST PUSH2 0x8B0 CALLER PUSH2 0xD35 JUMP JUMPDEST PUSH2 0x8E5 PUSH1 0x1 PUSH1 0x1 PUSH1 0xA0 SHL SUB PUSH32 0x0 AND CALLER ADDRESS DUP5 PUSH2 0xE49 JUMP JUMPDEST CALLER PUSH1 0x0 SWAP1 DUP2 MSTORE PUSH1 0x9 PUSH1 0x20 MSTORE PUSH1 0x40 DUP2 KECCAK256 DUP1 SLOAD DUP4 SWAP3 SWAP1 PUSH2 0x904 SWAP1 DUP5 SWAP1 PUSH2 0x1016 JUMP JUMPDEST SWAP3 POP POP DUP2 SWAP1 SSTORE POP DUP1 PUSH1 0x4 PUSH1 0x0 DUP3 DUP3 SLOAD PUSH2 0x91D SWAP2 SWAP1 PUSH2 0x1016 JUMP JUMPDEST SWAP1 SWAP2 SSTORE POP POP PUSH1 0x40 MLOAD DUP2 DUP2 MSTORE CALLER SWAP1 PUSH32 0x2DA466A7B24304F47E87FA2E1E5A81B9831CE54FEC19055CE277CA2F39BA42C4 SWAP1 PUSH1 0x20 ADD PUSH1 0x40 MLOAD DUP1 SWAP2 SUB SWAP1 LOG2 POP JUMP JUMPDEST PUSH1 0x0 DUP2 GT PUSH2 0x97A JUMPI PUSH1 0x40 MLOAD PUSH3 0x461BCD PUSH1 0xE5 SHL DUP2 MSTORE PUSH1 0x4 ADD PUSH2 0x42B SWAP1 PUSH2 0x1029 JUMP JUMPDEST PUSH2 0x982 PUSH2 0x7A3 JUMP JUMPDEST PUSH2 0x98B CALLER PUSH2 0xD35 JUMP JUMPDEST CALLER PUSH1 0x0 SWAP1 DUP2 MSTORE PUSH1 0x9 PUSH1 0x20 MSTORE PUSH1 0x40 DUP2 KECCAK256 PUSH1 0x1 DUP2 ADD SLOAD SWAP1 SWAP2 SWAP1 PUSH2 0x9AD SWAP1 DUP5 SWAP1 PUSH2 0x1016 JUMP JUMPDEST SWAP1 POP PUSH2 0x9BD DUP3 PUSH1 0x0 ADD SLOAD DUP3 PUSH2 0xDE4 JUMP JUMPDEST PUSH2 0xA09 JUMPI PUSH1 0x40 MLOAD PUSH3 0x461BCD PUSH1 0xE5 SHL DUP2 MSTORE PUSH1 0x20 PUSH1 0x4 DUP3 ADD MSTORE PUSH1 0x17 PUSH1 0x24 DUP3 ADD MSTORE PUSH32 0x696E73756666696369656E7420636F6C6C61746572616C000000000000000000 PUSH1 0x44 DUP3 ADD MSTORE PUSH1 0x64 ADD PUSH2 0x42B JUMP JUMPDEST PUSH1 0x40 MLOAD PUSH4 0x70A08231 PUSH1 0xE0 SHL DUP2 MSTORE ADDRESS PUSH1 0x4 DUP3 ADD MSTORE DUP4 SWAP1 PUSH32 0x0 PUSH1 0x1 PUSH1 0x1 PUSH1 0xA0 SHL SUB AND SWAP1 PUSH4 0x70A08231 SWAP1 PUSH1 0x24 ADD PUSH1 0x20 PUSH1 0x40 MLOAD DUP1 DUP4 SUB DUP2 DUP7 GAS STATICCALL ISZERO DUP1 ISZERO PUSH2 0xA6F JUMPI RETURNDATASIZE PUSH1 0x0 DUP1 RETURNDATACOPY RETURNDATASIZE PUSH1 0x0 REVERT JUMPDEST POP POP POP POP PUSH1 0x40 MLOAD RETURNDATASIZE PUSH1 0x1F NOT PUSH1 0x1F DUP3 ADD AND DUP3 ADD DUP1 PUSH1 0x40 MSTORE POP DUP2 ADD SWAP1 PUSH2 0xA93 SWAP2 SWAP1 PUSH2 0x104B JUMP JUMPDEST LT ISZERO PUSH2 0xAE1 JUMPI PUSH1 0x40 MLOAD PUSH3 0x461BCD PUSH1 0xE5 SHL DUP2 MSTORE PUSH1 0x20 PUSH1 0x4 DUP3 ADD MSTORE PUSH1 0x1B PUSH1 0x24 DUP3 ADD MSTORE PUSH32 0x696E73756666696369656E7420706F6F6C206C69717569646974790000000000 PUSH1 0x44 DUP3 ADD MSTORE PUSH1 0x64 ADD PUSH2 0x42B JUMP JUMPDEST DUP1 DUP3 PUSH1 0x1 ADD DUP2 SWAP1 SSTORE POP DUP3 PUSH1 0x5 PUSH1 0x0 DUP3 DUP3 SLOAD PUSH2 0xAFC SWAP2 SWAP1 PUSH2 0x1016 JUMP JUMPDEST SWAP1 SWAP2 SSTORE POP PUSH2 0xB36 SWAP1 POP PUSH1 0x1 PUSH1 0x1 PUSH1 0xA0 SHL SUB PUSH32 0x0 AND CALLER DUP6 PUSH2 0xE0F JUMP JUMPDEST PUSH1 0x40 MLOAD DUP4 DUP2 MSTORE CALLER SWAP1 PUSH32 0xAC59582E5396ACA512FA873A2047E7F4C80F8F55D4A06CB34A78A0187F62719F SWAP1 PUSH1 0x20 ADD PUSH2 0x65F JUMP JUMPDEST PUSH1 0x1 PUSH1 0x1 PUSH1 0xA0 SHL SUB DUP2 AND PUSH1 0x0 SWAP1 DUP2 MSTORE PUSH1 0x9 PUSH1 0x20 SWAP1 DUP2 MSTORE PUSH1 0x40 DUP1 DUP4 KECCAK256 DUP2 MLOAD PUSH1 0x80 DUP2 ADD DUP4 MSTORE DUP2 SLOAD DUP2 MSTORE PUSH1 0x1 DUP3 ADD SLOAD SWAP4 DUP2 ADD SWAP4 SWAP1 SWAP4 MSTORE PUSH1 0x2 DUP2 ADD SLOAD SWAP2 DUP4 ADD SWAP2 SWAP1 SWAP2 MSTORE PUSH1 0x3 ADD SLOAD PUSH1 0x60 DUP3 ADD MSTORE DUP2 SWAP1 DUP2 SWAP1 DUP2 DUP1 PUSH2 0xBBE PUSH2 0x30F JUMP JUMPDEST POP POP SWAP4 POP SWAP4 POP POP POP DUP3 PUSH1 0x0 ADD MLOAD SWAP6 POP DUP3 PUSH1 0x20 ADD MLOAD SWAP5 POP PUSH1 0x0 DUP7 GT DUP1 ISZERO PUSH2 0xBE8 JUMPI POP PUSH1 0x0 DUP4 PUSH1 0x40 ADD MLOAD GT JUMPDEST ISZERO PUSH2 0xC09 JUMPI PUSH1 0x40 DUP4 ADD MLOAD PUSH2 0xBFC DUP4 DUP9 PUSH2 0xFDD JUMP JUMPDEST PUSH2 0xC06 SWAP2 SWAP1 PUSH2 0xFF4 JUMP JUMPDEST SWAP6 POP JUMPDEST PUSH1 0x0 DUP6 GT DUP1 ISZERO PUSH2 0xC1D JUMPI POP PUSH1 0x0 DUP4 PUSH1 0x60 ADD MLOAD GT JUMPDEST ISZERO PUSH2 0xC3E JUMPI PUSH1 0x60 DUP4 ADD MLOAD PUSH2 0xC31 DUP3 DUP8 PUSH2 0xFDD JUMP JUMPDEST PUSH2 0xC3B SWAP2 SWAP1 PUSH2 0xFF4 JUMP JUMPDEST SWAP5 POP JUMPDEST PUSH1 0x0 PUSH2 0xC4C DUP8 PUSH1 0x3 SLOAD PUSH2 0xD0F JUMP JUMPDEST SWAP1 POP DUP6 DUP2 GT PUSH2 0xC5C JUMPI PUSH1 0x0 PUSH2 0xC66 JUMP JUMPDEST PUSH2 0xC66 DUP7 DUP3 PUSH2 0xFCA JUMP JUMPDEST SWAP7 SWAP9 SWAP6 SWAP8 POP POP POP POP POP POP JUMP JUMPDEST PUSH1 0x0 DUP3 ISZERO DUP1 PUSH2 0xC7F JUMPI POP DUP2 ISZERO JUMPDEST ISZERO PUSH2 0xC8C JUMPI POP PUSH1 0x0 PUSH2 0xCBD JUMP JUMPDEST PUSH1 0x0 PUSH2 0xC98 DUP4 DUP6 PUSH2 0xE85 JUMP JUMPDEST SWAP1 POP PUSH8 0xDE0B6B3A7640000 DUP2 GT PUSH2 0xCAF JUMPI DUP1 PUSH2 0xCB9 JUMP JUMPDEST PUSH8 0xDE0B6B3A7640000 JUMPDEST SWAP2 POP POP JUMPDEST SWAP3 SWAP2 POP POP JUMP JUMPDEST PUSH1 0x0 DUP1 PUSH2 0xCD2 PUSH1 0x1 SLOAD DUP5 PUSH2 0xD0F JUMP JUMPDEST PUSH1 0x0 SLOAD PUSH2 0xCDF SWAP2 SWAP1 PUSH2 0x1016 JUMP JUMPDEST SWAP2 POP PUSH2 0xD08 PUSH2 0xCEE DUP4 DUP6 PUSH2 0xD0F JUMP JUMPDEST PUSH1 0x2 SLOAD PUSH2 0xD03 SWAP1 PUSH8 0xDE0B6B3A7640000 PUSH2 0xFCA JUMP JUMPDEST PUSH2 0xD0F JUMP JUMPDEST SWAP1 POP SWAP2 POP SWAP2 JUMP JUMPDEST PUSH1 0x0 PUSH8 0xDE0B6B3A7640000 PUSH2 0xD24 DUP4 DUP6 PUSH2 0xFDD JUMP JUMPDEST PUSH2 0xD2E SWAP2 SWAP1 PUSH2 0xFF4 JUMP JUMPDEST SWAP4 SWAP3 POP POP POP JUMP JUMPDEST PUSH1 0x1 PUSH1 0x1 PUSH1 0xA0 SHL SUB DUP2 AND PUSH1 0x0 SWAP1 DUP2 MSTORE PUSH1 0x9 PUSH1 0x20 MSTORE PUSH1 0x40 DUP2 KECCAK256 PUSH1 0x2 DUP2 ADD SLOAD SWAP1 SWAP2 SUB PUSH2 0xD62 JUMPI PUSH1 0x6 SLOAD PUSH1 0x2 DUP3 ADD SSTORE JUMPDEST DUP1 PUSH1 0x3 ADD SLOAD PUSH1 0x0 SUB PUSH2 0xD77 JUMPI PUSH1 0x7 SLOAD PUSH1 0x3 DUP3 ADD SSTORE JUMPDEST DUP1 SLOAD ISZERO PUSH2 0xD9F JUMPI PUSH1 0x2 DUP2 ADD SLOAD PUSH1 0x6 SLOAD DUP3 SLOAD PUSH2 0xD92 SWAP2 SWAP1 PUSH2 0xFDD JUMP JUMPDEST PUSH2 0xD9C SWAP2 SWAP1 PUSH2 0xFF4 JUMP JUMPDEST DUP2 SSTORE JUMPDEST PUSH1 0x1 DUP2 ADD SLOAD ISZERO PUSH2 0xDD0 JUMPI DUP1 PUSH1 0x3 ADD SLOAD PUSH1 0x7 SLOAD DUP3 PUSH1 0x1 ADD SLOAD PUSH2 0xDC0 SWAP2 SWAP1 PUSH2 0xFDD JUMP JUMPDEST PUSH2 0xDCA SWAP2 SWAP1 PUSH2 0xFF4 JUMP JUMPDEST PUSH1 0x1 DUP3 ADD SSTORE JUMPDEST PUSH1 0x6 SLOAD PUSH1 0x2 DUP3 ADD SSTORE PUSH1 0x7 SLOAD PUSH1 0x3 SWAP1 SWAP2 ADD SSTORE POP JUMP JUMPDEST PUSH1 0x0 DUP2 PUSH1 0x0 SUB PUSH2 0xDF6 JUMPI POP PUSH1 0x1 PUSH2 0xCBD JUMP JUMPDEST PUSH1 0x0 PUSH2 0xE04 DUP5 PUSH1 0x3 SLOAD PUSH2 0xD0F JUMP JUMPDEST SWAP1 SWAP3 GT ISZERO SWAP4 SWAP3 POP POP POP JUMP JUMPDEST PUSH2 0xE1C DUP4 DUP4 DUP4 PUSH1 0x1 PUSH2 0xE9A JUMP JUMPDEST PUSH2 0xE44 JUMPI PUSH1 0x40 MLOAD PUSH4 0x5274AFE7 PUSH1 0xE0 SHL DUP2 MSTORE PUSH1 0x1 PUSH1 0x1 PUSH1 0xA0 SHL SUB DUP5 AND PUSH1 0x4 DUP3 ADD MSTORE PUSH1 0x24 ADD PUSH2 0x42B JUMP JUMPDEST POP POP POP JUMP JUMPDEST PUSH2 0xE57 DUP5 DUP5 DUP5 DUP5 PUSH1 0x1 PUSH2 0xF00 JUMP JUMPDEST PUSH2 0xE7F JUMPI PUSH1 0x40 MLOAD PUSH4 0x5274AFE7 PUSH1 0xE0 SHL DUP2 MSTORE PUSH1 0x1 PUSH1 0x1 PUSH1 0xA0 SHL SUB DUP6 AND PUSH1 0x4 DUP3 ADD MSTORE PUSH1 0x24 ADD PUSH2 0x42B JUMP JUMPDEST POP POP POP POP JUMP JUMPDEST PUSH1 0x0 DUP2 PUSH2 0xD24 PUSH8 0xDE0B6B3A7640000 DUP6 PUSH2 0xFDD JUMP JUMPDEST PUSH1 0x40 MLOAD PUSH4 0xA9059CBB PUSH1 0xE0 SHL PUSH1 0x0 DUP2 DUP2 MSTORE PUSH1 0x1 PUSH1 0x1 PUSH1 0xA0 SHL SUB DUP7 AND PUSH1 0x4 MSTORE PUSH1 0x24 DUP6 SWAP1 MSTORE SWAP2 PUSH1 0x20 DUP4 PUSH1 0x44 DUP2 DUP1 DUP12 GAS CALL SWAP3 POP PUSH1 0x1 PUSH1 0x0 MLOAD EQ DUP4 AND PUSH2 0xEF4 JUMPI DUP4 DUP4 ISZERO AND ISZERO PUSH2 0xEE7 JUMPI RETURNDATASIZE PUSH1 0x0 DUP3 RETURNDATACOPY RETURNDATASIZE DUP2 REVERT JUMPDEST PUSH1 0x0 DUP8 EXTCODESIZE GT RETURNDATASIZE ISZERO AND DUP4 AND SWAP3 POP JUMPDEST PUSH1 0x40 MSTORE POP SWAP5 SWAP4 POP POP POP POP JUMP JUMPDEST PUSH1 0x40 MLOAD PUSH4 0x23B872DD PUSH1 0xE0 SHL PUSH1 0x0 DUP2 DUP2 MSTORE PUSH1 0x1 PUSH1 0x1 PUSH1 0xA0 SHL SUB DUP8 DUP2 AND PUSH1 0x4 MSTORE DUP7 AND PUSH1 0x24 MSTORE PUSH1 0x44 DUP6 SWAP1 MSTORE SWAP2 PUSH1 0x20 DUP4 PUSH1 0x64 DUP2 DUP1 DUP13 GAS CALL SWAP3 POP PUSH1 0x1 PUSH1 0x0 MLOAD EQ DUP4 AND PUSH2 0xF60 JUMPI DUP4 DUP4 ISZERO AND ISZERO PUSH2 0xF53 JUMPI RETURNDATASIZE PUSH1 0x0 DUP3 RETURNDATACOPY RETURNDATASIZE DUP2 REVERT JUMPDEST PUSH1 0x0 DUP9 EXTCODESIZE GT RETURNDATASIZE ISZERO AND DUP4 AND SWAP3 POP JUMPDEST PUSH1 0x40 MSTORE POP PUSH1 0x0 PUSH1 0x60 MSTORE SWAP6 SWAP5 POP POP POP POP POP JUMP JUMPDEST PUSH1 0x0 PUSH1 0x20 DUP3 DUP5 SUB SLT ISZERO PUSH2 0xF84 JUMPI PUSH1 0x0 DUP1 REVERT JUMPDEST POP CALLDATALOAD SWAP2 SWAP1 POP JUMP JUMPDEST PUSH1 0x0 PUSH1 0x20 DUP3 DUP5 SUB SLT ISZERO PUSH2 0xF9D JUMPI PUSH1 0x0 DUP1 REVERT JUMPDEST DUP2 CALLDATALOAD PUSH1 0x1 PUSH1 0x1 PUSH1 0xA0 SHL SUB DUP2 AND DUP2 EQ PUSH2 0xD2E JUMPI PUSH1 0x0 DUP1 REVERT JUMPDEST PUSH4 0x4E487B71 PUSH1 0xE0 SHL PUSH1 0x0 MSTORE PUSH1 0x11 PUSH1 0x4 MSTORE PUSH1 0x24 PUSH1 0x0 REVERT JUMPDEST DUP2 DUP2 SUB DUP2 DUP2 GT ISZERO PUSH2 0xCBD JUMPI PUSH2 0xCBD PUSH2 0xFB4 JUMP JUMPDEST DUP1 DUP3 MUL DUP2 ISZERO DUP3 DUP3 DIV DUP5 EQ OR PUSH2 0xCBD JUMPI PUSH2 0xCBD PUSH2 0xFB4 JUMP JUMPDEST PUSH1 0x0 DUP3 PUSH2 0x1011 JUMPI PUSH4 0x4E487B71 PUSH1 0xE0 SHL PUSH1 0x0 MSTORE PUSH1 0x12 PUSH1 0x4 MSTORE PUSH1 0x24 PUSH1 0x0 REVERT JUMPDEST POP DIV SWAP1 JUMP JUMPDEST DUP1 DUP3 ADD DUP1 DUP3 GT ISZERO PUSH2 0xCBD JUMPI PUSH2 0xCBD PUSH2 0xFB4 JUMP JUMPDEST PUSH1 0x20 DUP1 DUP3 MSTORE PUSH1 0x8 SWAP1 DUP3 ADD MSTORE PUSH8 0x616D6F756E743D3 PUSH1 0xC4 SHL PUSH1 0x40 DUP3 ADD MSTORE PUSH1 0x60 ADD SWAP1 JUMP JUMPDEST PUSH1 0x0 PUSH1 0x20 DUP3 DUP5 SUB SLT ISZERO PUSH2 0x105D JUMPI PUSH1 0x0 DUP1 REVERT JUMPDEST POP MLOAD SWAP2 SWAP1 POP JUMP INVALID LOG2 PUSH5 0x6970667358 0x22 SLT KECCAK256 STATICCALL 0xBF PUSH2 0x94E0 PUSH24 0x8580D6CB8B4F7A65483A22FD8EC94FC3910EA3BB4D769789 PUSH27 0x5264736F6C63430008180033000000000000000000000000000000 "},"methodIdentifiers":{"WAD()":"6a146024","YEAR()":"83914540","accrueInterest()":"a6afed95","asset()":"38d52e0f","baseRatePerYear()":"de3f9485","borrow(uint256)":"c5ebeaec","borrowIndex()":"aa5af0fd","collateralFactor()":"df011c41","currentRates()":"b0b423d7","deposit(uint256)":"b6b55f25","lastAccrualTimestamp()":"c0789dcb","positions(address)":"55f57510","previewState()":"1bcf0f98","repay(uint256)":"371fd8e6","reserveFactor()":"4322b714","slopeRatePerYear()":"3e92d260","supplyIndex()":"98f1bc12","totalBorrowPrincipal()":"2b9b1730","totalSupplyPrincipal()":"8b972045","userAccount(address)":"ea5eda32","withdraw(uint256)":"2e1a7d4d"}}}}}