{
  "_format": "hh-sol-artifact-1",
  "contractName": "DeFiLendingPool",
  "sourceName": "contracts/DeFiLendingPool.sol",
  "abi": [
    {
      "inputs": [
        {
          "internalType": "contract IERC20",
          "name": "_asset",
          "type": "address"
        }
      ],
      "stateMutability": "nonpayable",
      "type": "constructor"
    },
    {
      "inputs": [
        {
          "internalType": "address",
          "name": "token",
          "type": "address"
        }
      ],
      "name": "SafeERC20FailedOperation",
      "type": "error"
    },
    {
      "anonymous": false,
      "inputs": [
        {
          "indexed": true,
          "internalType": "address",
          "name": "user",
          "type": "address"
        },
        {
          "indexed": false,
          "internalType": "uint256",
          "name": "amount",
          "type": "uint256"
        }
      ],
      "name": "Borrowed",
      "type": "event"
    },
    {
      "anonymous": false,
      "inputs": [
        {
          "indexed": true,
          "internalType": "address",
          "name": "user",
          "type": "address"
        },
        {
          "indexed": false,
          "internalType": "uint256",
          "name": "amount",
          "type": "uint256"
        }
      ],
      "name": "Deposited",
      "type": "event"
    },
    {
      "anonymous": false,
      "inputs": [
        {
          "indexed": false,
          "internalType": "uint256",
          "name": "supplyIndex",
          "type": "uint256"
        },
        {
          "indexed": false,
          "internalType": "uint256",
          "name": "borrowIndex",
          "type": "uint256"
        },
        {
          "indexed": false,
          "internalType": "uint256",
          "name": "totalSupply",
          "type": "uint256"
        },
        {
          "indexed": false,
          "internalType": "uint256",
          "name": "totalBorrow",
          "type": "uint256"
        },
        {
          "indexed": false,
          "internalType": "uint256",
          "name": "borrowRatePerYear",
          "type": "uint256"
        },
        {
          "indexed": false,
          "internalType": "uint256",
          "name": "supplyRatePerYear",
          "type": "uint256"
        }
      ],
      "name": "InterestAccrued",
      "type": "event"
    },
    {
      "anonymous": false,
      "inputs": [
        {
          "indexed": true,
          "internalType": "address",
          "name": "user",
          "type": "address"
        },
        {
          "indexed": false,
          "internalType": "uint256",
          "name": "amount",
          "type": "uint256"
        }
      ],
      "name": "Repaid",
      "type": "event"
    },
    {
      "anonymous": false,
      "inputs": [
        {
          "indexed": true,
          "internalType": "address",
          "name": "user",
          "type": "address"
        },
        {
          "indexed": false,
          "internalType": "uint256",
          "name": "amount",
          "type": "uint256"
        }
      ],
      "name": "Withdrawn",
      "type": "event"
    },
    {
      "inputs": [],
      "name": "WAD",
      "outputs": [
        {
          "internalType": "uint256",
          "name": "",
          "type": "uint256"
        }
      ],
      "stateMutability": "view",
      "type": "function"
    },
    {
      "inputs": [],
      "name": "YEAR",
      "outputs": [
        {
          "internalType": "uint256",
          "name": "",
          "type": "uint256"
        }
      ],
      "stateMutability": "view",
      "type": "function"
    },
    {
      "inputs": [],
      "name": "accrueInterest",
      "outputs": [],
      "stateMutability": "nonpayable",
      "type": "function"
    },
    {
      "inputs": [],
      "name": "asset",
      "outputs": [
        {
          "internalType": "contract IERC20",
          "name": "",
          "type": "address"
        }
      ],
      "stateMutability": "view",
      "type": "function"
    },
    {
      "inputs": [],
      "name": "baseRatePerYear",
      "outputs": [
        {
          "internalType": "uint256",
          "name": "",
          "type": "uint256"
        }
      ],
      "stateMutability": "view",
      "type": "function"
    },
    {
      "inputs": [
        {
          "internalType": "uint256",
          "name": "amount",
          "type": "uint256"
        }
      ],
      "name": "borrow",
      "outputs": [],
      "stateMutability": "nonpayable",
      "type": "function"
    },
    {
      "inputs": [],
      "name": "borrowIndex",
      "outputs": [
        {
          "internalType": "uint256",
          "name": "",
          "type": "uint256"
        }
      ],
      "stateMutability": "view",
      "type": "function"
    },
    {
      "inputs": [],
      "name": "collateralFactor",
      "outputs": [
        {
          "internalType": "uint256",
          "name": "",
          "type": "uint256"
        }
      ],
      "stateMutability": "view",
      "type": "function"
    },
    {
      "inputs": [],
      "name": "currentRates",
      "outputs": [
        {
          "internalType": "uint256",
          "name": "borrowRate",
          "type": "uint256"
        },
        {
          "internalType": "uint256",
          "name": "supplyRate",
          "type": "uint256"
        },
        {
          "internalType": "uint256",
          "name": "utilization",
          "type": "uint256"
        }
      ],
      "stateMutability": "view",
      "type": "function"
    },
    {
      "inputs": [
        {
          "internalType": "uint256",
          "name": "amount",
          "type": "uint256"
        }
      ],
      "name": "deposit",
      "outputs": [],
      "stateMutability": "nonpayable",
      "type": "function"
    },
    {
      "inputs": [],
      "name": "lastAccrualTimestamp",
      "outputs": [
        {
          "internalType": "uint256",
          "name": "",
          "type": "uint256"
        }
      ],
      "stateMutability": "view",
      "type": "function"
    },
    {
      "inputs": [
        {
          "internalType": "address",
          "name": "",
          "type": "address"
        }
      ],
      "name": "positions",
      "outputs": [
        {
          "internalType": "uint256",
          "name": "supplyPrincipal",
          "type": "uint256"
        },
        {
          "internalType": "uint256",
          "name": "borrowPrincipal",
          "type": "uint256"
        },
        {
          "internalType": "uint256",
          "name": "supplyIndexSnapshot",
          "type": "uint256"
        },
        {
          "internalType": "uint256",
          "name": "borrowIndexSnapshot",
          "type": "uint256"
        }
      ],
      "stateMutability": "view",
      "type": "function"
    },
    {
      "inputs": [],
      "name": "previewState",
      "outputs": [
        {
          "internalType": "uint256",
          "name": "projectedSupply",
          "type": "uint256"
        },
        {
          "internalType": "uint256",
          "name": "projectedBorrow",
          "type": "uint256"
        },
        {
          "internalType": "uint256",
          "name": "projectedSupplyIndex",
          "type": "uint256"
        },
        {
          "internalType": "uint256",
          "name": "projectedBorrowIndex",
          "type": "uint256"
        },
        {
          "internalType": "uint256",
          "name": "borrowRate",
          "type": "uint256"
        },
        {
          "internalType": "uint256",
          "name": "supplyRate",
          "type": "uint256"
        }
      ],
      "stateMutability": "view",
      "type": "function"
    },
    {
      "inputs": [
        {
          "internalType": "uint256",
          "name": "amount",
          "type": "uint256"
        }
      ],
      "name": "repay",
      "outputs": [
        {
          "internalType": "uint256",
          "name": "repaid",
          "type": "uint256"
        }
      ],
      "stateMutability": "nonpayable",
      "type": "function"
    },
    {
      "inputs": [],
      "name": "reserveFactor",
      "outputs": [
        {
          "internalType": "uint256",
          "name": "",
          "type": "uint256"
        }
      ],
      "stateMutability": "view",
      "type": "function"
    },
    {
      "inputs": [],
      "name": "slopeRatePerYear",
      "outputs": [
        {
          "internalType": "uint256",
          "name": "",
          "type": "uint256"
        }
      ],
      "stateMutability": "view",
      "type": "function"
    },
    {
      "inputs": [],
      "name": "supplyIndex",
      "outputs": [
        {
          "internalType": "uint256",
          "name": "",
          "type": "uint256"
        }
      ],
      "stateMutability": "view",
      "type": "function"
    },
    {
      "inputs": [],
      "name": "totalBorrowPrincipal",
      "outputs": [
        {
          "internalType": "uint256",
          "name": "",
          "type": "uint256"
        }
      ],
      "stateMutability": "view",
      "type": "function"
    },
    {
      "inputs": [],
      "name": "totalSupplyPrincipal",
      "outputs": [
        {
          "internalType": "uint256",
          "name": "",
          "type": "uint256"
        }
      ],
      "stateMutability": "view",
      "type": "function"
    },
    {
      "inputs": [
        {
          "internalType": "address",
          "name": "user",
          "type": "address"
        }
      ],
      "name": "userAccount",
      "outputs": [
        {
          "internalType": "uint256",
          "name": "supplied",
          "type": "uint256"
        },
        {
          "internalType": "uint256",
          "name": "borrowed",
          "type": "uint256"
        },
        {
          "internalType": "uint256",
          "name": "availableToBorrow",
          "type": "uint256"
        }
      ],
      "stateMutability": "view",
      "type": "function"
    },
    {
      "inputs": [
        {
          "internalType": "uint256",
          "name": "amount",
          "type": "uint256"
        }
      ],
      "name": "withdraw",
      "outputs": [],
      "stateMutability": "nonpayable",
      "type": "function"
    }
  ],
  "bytecode": "0x60a060405266470de4df82000060005567027f7d0bdb92000060015567016345785d8a0000600255670a688906bd8b0000600355670de0b6b3a7640000600655670de0b6b3a764000060075534801561005757600080fd5b5060405161119a38038061119a8339810160408190526100769161008b565b6001600160a01b0316608052426008556100bb565b60006020828403121561009d57600080fd5b81516001600160a01b03811681146100b457600080fd5b9392505050565b60805161109a610100600039600081816101ba0152818161051e0152818161060a0152818161070e015281816108bd01528181610a200152610b0f015261109a6000f3fe608060405234801561001057600080fd5b50600436106101375760003560e01c80638b972045116100b8578063b6b55f251161007c578063b6b55f25146102bb578063c0789dcb146102ce578063c5ebeaec146102d7578063de3f9485146102ea578063df011c41146102f3578063ea5eda32146102fc57600080fd5b80638b9720451461027557806398f1bc121461027e578063a6afed9514610287578063aa5af0fd1461028f578063b0b423d71461029857600080fd5b80633e92d260116100ff5780633e92d260146101f45780634322b714146101fd57806355f57510146102065780636a1460241461025b578063839145401461026a57600080fd5b80631bcf0f981461013c5780632b9b1730146101765780632e1a7d4d1461018d578063371fd8e6146101a257806338d52e0f146101b5575b600080fd5b61014461030f565b604080519687526020870195909552938501929092526060840152608083015260a082015260c0015b60405180910390f35b61017f60055481565b60405190815260200161016d565b6101a061019b366004610f72565b61040b565b005b61017f6101b0366004610f72565b61066c565b6101dc7f000000000000000000000000000000000000000000000000000000000000000081565b6040516001600160a01b03909116815260200161016d565b61017f60015481565b61017f60025481565b61023b610214366004610f8b565b60096020526000908152604090208054600182015460028301546003909301549192909184565b60408051948552602085019390935291830152606082015260800161016d565b61017f670de0b6b3a764000081565b61017f6301e1338081565b61017f60045481565b61017f60065481565b6101a06107a3565b61017f60075481565b6102a0610857565b6040805193845260208401929092529082015260600161016d565b6101a06102c9366004610f72565b61087f565b61017f60085481565b6101a06102e5366004610f72565b61095a565b61017f60005481565b61017f60035481565b6102a061030a366004610f8b565b610b68565b6000806000806000806000600854426103289190610fca565b9050600061033a600454600554610c72565b905061034581610cc3565b8094508195505050600454975060055496506006549550600754945081600003610370575050610403565b60006301e133806103818487610fdd565b61038b9190610ff4565b61039d90670de0b6b3a7640000611016565b905060006301e133806103b08587610fdd565b6103ba9190610ff4565b6103cc90670de0b6b3a7640000611016565b90506103d88983610d0f565b98506103e48a82610d0f565b99506103f08783610d0f565b96506103fc8882610d0f565b9750505050505b909192939495565b600081116104345760405162461bcd60e51b815260040161042b90611029565b60405180910390fd5b61043c6107a3565b61044533610d35565b336000908152600960205260409020805482111561049b5760405162461bcd60e51b8152602060048201526013602482015272696e73756666696369656e7420737570706c7960681b604482015260640161042b565b80546000906104ab908490610fca565b90506104bb818360010154610de4565b6105075760405162461bcd60e51b815260206004820181905260248201527f776f756c64206265636f6d6520756e646572636f6c6c61746572616c697a6564604482015260640161042b565b6040516370a0823160e01b815230600482015283907f00000000000000000000000000000000000000000000000000000000000000006001600160a01b0316906370a0823190602401602060405180830381865afa15801561056d573d6000803e3d6000fd5b505050506040513d601f19601f82011682018060405250810190610591919061104b565b10156105df5760405162461bcd60e51b815260206004820152601b60248201527f696e73756666696369656e7420706f6f6c206c69717569646974790000000000604482015260640161042b565b808255600480548491906000906105f7908490610fca565b9091555061063190506001600160a01b037f0000000000000000000000000000000000000000000000000000000000000000163385610e0f565b60405183815233907f7084f5476618d8e60b11ef0d7d3f06914655adb8793e28ff7f018d4c76d505d5906020015b60405180910390a2505050565b600080821161068d5760405162461bcd60e51b815260040161042b90611029565b6106956107a3565b61069e33610d35565b33600090815260096020526040902060018101546106e85760405162461bcd60e51b81526020600482015260076024820152661b9bc81919589d60ca1b604482015260640161042b565b806001015483116106f957826106ff565b80600101545b91506107366001600160a01b037f000000000000000000000000000000000000000000000000000000000000000016333085610e49565b8181600101600082825461074a9190610fca565b9250508190555081600560008282546107639190610fca565b909155505060405182815233907f0516911bcc3a0a7412a44601057c0a0a1ec628bde049a84284bc4288665344889060200160405180910390a250919050565b6000600854426107b39190610fca565b9050806000036107c05750565b6000806000806000806107d161030f565b6004869055600585905560068490556007839055426008556040805185815260208101859052908101879052606081018690526080810183905260a08101829052959b509399509197509550935091507ff59d1911fff863f94e712b8a90fa6badeaf1daf0153218d332689f7019f7e6b19060c00160405180910390a150505050505050565b600080600061086a600454600554610c72565b905061087581610cc3565b9094909350909150565b6000811161089f5760405162461bcd60e51b815260040161042b90611029565b6108a76107a3565b6108b033610d35565b6108e56001600160a01b037f000000000000000000000000000000000000000000000000000000000000000016333084610e49565b3360009081526009602052604081208054839290610904908490611016565b92505081905550806004600082825461091d9190611016565b909155505060405181815233907f2da466a7b24304f47e87fa2e1e5a81b9831ce54fec19055ce277ca2f39ba42c49060200160405180910390a250565b6000811161097a5760405162461bcd60e51b815260040161042b90611029565b6109826107a3565b61098b33610d35565b33600090815260096020526040812060018101549091906109ad908490611016565b90506109bd826000015482610de4565b610a095760405162461bcd60e51b815260206004820152601760248201527f696e73756666696369656e7420636f6c6c61746572616c000000000000000000604482015260640161042b565b6040516370a0823160e01b815230600482015283907f00000000000000000000000000000000000000000000000000000000000000006001600160a01b0316906370a0823190602401602060405180830381865afa158015610a6f573d6000803e3d6000fd5b505050506040513d601f19601f82011682018060405250810190610a93919061104b565b1015610ae15760405162461bcd60e51b815260206004820152601b60248201527f696e73756666696369656e7420706f6f6c206c69717569646974790000000000604482015260640161042b565b8082600101819055508260056000828254610afc9190611016565b90915550610b3690506001600160a01b037f0000000000000000000000000000000000000000000000000000000000000000163385610e0f565b60405183815233907fac59582e5396aca512fa873a2047e7f4c80f8f55d4a06cb34a78a0187f62719f9060200161065f565b6001600160a01b0381166000908152600960209081526040808320815160808101835281548152600182015493810193909352600281015491830191909152600301546060820152819081908180610bbe61030f565b50509350935050508260000151955082602001519450600086118015610be8575060008360400151115b15610c09576040830151610bfc8388610fdd565b610c069190610ff4565b95505b600085118015610c1d575060008360600151115b15610c3e576060830151610c318287610fdd565b610c3b9190610ff4565b94505b6000610c4c87600354610d0f565b9050858111610c5c576000610c66565b610c668682610fca565b96989597505050505050565b6000821580610c7f575081155b15610c8c57506000610cbd565b6000610c988385610e85565b9050670de0b6b3a76400008111610caf5780610cb9565b670de0b6b3a76400005b9150505b92915050565b600080610cd260015484610d0f565b600054610cdf9190611016565b9150610d08610cee8385610d0f565b600254610d0390670de0b6b3a7640000610fca565b610d0f565b9050915091565b6000670de0b6b3a7640000610d248385610fdd565b610d2e9190610ff4565b9392505050565b6001600160a01b03811660009081526009602052604081206002810154909103610d625760065460028201555b8060030154600003610d775760075460038201555b805415610d9f5760028101546006548254610d929190610fdd565b610d9c9190610ff4565b81555b600181015415610dd05780600301546007548260010154610dc09190610fdd565b610dca9190610ff4565b60018201555b600654600282015560075460039091015550565b600081600003610df657506001610cbd565b6000610e0484600354610d0f565b909211159392505050565b610e1c8383836001610e9a565b610e4457604051635274afe760e01b81526001600160a01b038416600482015260240161042b565b505050565b610e57848484846001610f00565b610e7f57604051635274afe760e01b81526001600160a01b038516600482015260240161042b565b50505050565b600081610d24670de0b6b3a764000085610fdd565b60405163a9059cbb60e01b60008181526001600160a01b038616600452602485905291602083604481808b5af192506001600051148316610ef4578383151615610ee7573d6000823e3d81fd5b6000873b113d1516831692505b60405250949350505050565b6040516323b872dd60e01b60008181526001600160a01b038781166004528616602452604485905291602083606481808c5af192506001600051148316610f60578383151615610f53573d6000823e3d81fd5b6000883b113d1516831692505b60405250600060605295945050505050565b600060208284031215610f8457600080fd5b5035919050565b600060208284031215610f9d57600080fd5b81356001600160a01b0381168114610d2e57600080fd5b634e487b7160e01b600052601160045260246000fd5b81810381811115610cbd57610cbd610fb4565b8082028115828204841417610cbd57610cbd610fb4565b60008261101157634e487b7160e01b600052601260045260246000fd5b500490565b80820180821115610cbd57610cbd610fb4565b6020808252600890820152670616d6f756e743d360c41b604082015260600190565b60006020828403121561105d57600080fd5b505191905056fea2646970667358221220fabf6194e0778580d6cb8b4f7a65483a22fd8ec94fc3910ea3bb4d7697897a5264736f6c63430008180033",
  "linkReferences": {},
  "deployedLinkReferences": {}
}